{
  "contractName": "MedPass",
  "abi": [
    {
      "inputs": [
        {
          "internalType": "address",
          "name": "",
          "type": "address"
        }
      ],
      "name": "adminmapping",
      "outputs": [
        {
          "internalType": "bool",
          "name": "",
          "type": "bool"
        }
      ],
      "stateMutability": "view",
      "type": "function",
      "constant": true
    },
    {
      "inputs": [
        {
          "internalType": "uint256",
          "name": "",
          "type": "uint256"
        }
      ],
      "name": "personTests",
      "outputs": [
        {
          "internalType": "uint32",
          "name": "id",
          "type": "uint32"
        },
        {
          "internalType": "address",
          "name": "by_admin",
          "type": "address"
        },
        {
          "internalType": "uint32",
          "name": "patient_id",
          "type": "uint32"
        },
        {
          "internalType": "enum MedPass.Condition",
          "name": "condition",
          "type": "uint8"
        },
        {
          "internalType": "uint256",
          "name": "timestamp",
          "type": "uint256"
        }
      ],
      "stateMutability": "view",
      "type": "function",
      "constant": true
    },
    {
      "inputs": [
        {
          "internalType": "enum MedPass.VaccineType",
          "name": "",
          "type": "uint8"
        }
      ],
      "name": "v_amount",
      "outputs": [
        {
          "internalType": "uint256",
          "name": "",
          "type": "uint256"
        }
      ],
      "stateMutability": "view",
      "type": "function",
      "constant": true
    },
    {
      "inputs": [
        {
          "internalType": "string",
          "name": "_fname",
          "type": "string"
        },
        {
          "internalType": "string",
          "name": "_lname",
          "type": "string"
        },
        {
          "internalType": "int256",
          "name": "_bday",
          "type": "int256"
        }
      ],
      "name": "setPerson",
      "outputs": [],
      "stateMutability": "nonpayable",
      "type": "function"
    },
    {
      "inputs": [],
      "name": "setAdmin",
      "outputs": [],
      "stateMutability": "nonpayable",
      "type": "function"
    },
    {
      "inputs": [
        {
          "internalType": "uint32",
          "name": "_id",
          "type": "uint32"
        },
        {
          "internalType": "string",
          "name": "_vaccine",
          "type": "string"
        }
      ],
      "name": "setVaccine",
      "outputs": [],
      "stateMutability": "nonpayable",
      "type": "function"
    },
    {
      "inputs": [
        {
          "internalType": "string",
          "name": "_type",
          "type": "string"
        },
        {
          "internalType": "uint256",
          "name": "_amount",
          "type": "uint256"
        }
      ],
      "name": "addV_amount",
      "outputs": [],
      "stateMutability": "nonpayable",
      "type": "function"
    },
    {
      "inputs": [
        {
          "internalType": "string",
          "name": "_type",
          "type": "string"
        },
        {
          "internalType": "uint256",
          "name": "_amount",
          "type": "uint256"
        }
      ],
      "name": "subV_amount",
      "outputs": [],
      "stateMutability": "nonpayable",
      "type": "function"
    },
    {
      "inputs": [
        {
          "internalType": "uint32",
          "name": "_id",
          "type": "uint32"
        },
        {
          "internalType": "string",
          "name": "_condition",
          "type": "string"
        }
      ],
      "name": "createTest",
      "outputs": [],
      "stateMutability": "nonpayable",
      "type": "function"
    },
    {
      "inputs": [
        {
          "internalType": "address",
          "name": "_owner",
          "type": "address"
        }
      ],
      "name": "getID",
      "outputs": [
        {
          "internalType": "uint32",
          "name": "",
          "type": "uint32"
        }
      ],
      "stateMutability": "pure",
      "type": "function",
      "constant": true
    },
    {
      "inputs": [
        {
          "internalType": "address",
          "name": "_owner",
          "type": "address"
        }
      ],
      "name": "getName",
      "outputs": [
        {
          "internalType": "string",
          "name": "",
          "type": "string"
        }
      ],
      "stateMutability": "view",
      "type": "function",
      "constant": true
    },
    {
      "inputs": [
        {
          "internalType": "address",
          "name": "_owner",
          "type": "address"
        }
      ],
      "name": "getBday",
      "outputs": [
        {
          "internalType": "int256",
          "name": "",
          "type": "int256"
        }
      ],
      "stateMutability": "view",
      "type": "function",
      "constant": true
    },
    {
      "inputs": [
        {
          "internalType": "address",
          "name": "_owner",
          "type": "address"
        }
      ],
      "name": "getV_Required",
      "outputs": [
        {
          "internalType": "uint256",
          "name": "",
          "type": "uint256"
        }
      ],
      "stateMutability": "view",
      "type": "function",
      "constant": true
    },
    {
      "inputs": [
        {
          "internalType": "address",
          "name": "_owner",
          "type": "address"
        }
      ],
      "name": "getVaccine",
      "outputs": [
        {
          "internalType": "string",
          "name": "_vaccine",
          "type": "string"
        }
      ],
      "stateMutability": "view",
      "type": "function",
      "constant": true
    },
    {
      "inputs": [
        {
          "internalType": "address",
          "name": "_owner",
          "type": "address"
        }
      ],
      "name": "getByAdmin",
      "outputs": [
        {
          "internalType": "address",
          "name": "",
          "type": "address"
        }
      ],
      "stateMutability": "view",
      "type": "function",
      "constant": true
    },
    {
      "inputs": [
        {
          "internalType": "address",
          "name": "_owner",
          "type": "address"
        }
      ],
      "name": "getCondition",
      "outputs": [
        {
          "internalType": "string",
          "name": "condi",
          "type": "string"
        }
      ],
      "stateMutability": "view",
      "type": "function",
      "constant": true
    },
    {
      "inputs": [
        {
          "internalType": "address",
          "name": "_owner",
          "type": "address"
        }
      ],
      "name": "getTestTime",
      "outputs": [
        {
          "internalType": "uint256",
          "name": "",
          "type": "uint256"
        }
      ],
      "stateMutability": "view",
      "type": "function",
      "constant": true
    },
    {
      "inputs": [
        {
          "internalType": "address",
          "name": "_owner",
          "type": "address"
        }
      ],
      "name": "getTestCount",
      "outputs": [
        {
          "internalType": "uint256",
          "name": "",
          "type": "uint256"
        }
      ],
      "stateMutability": "view",
      "type": "function",
      "constant": true
    },
    {
      "inputs": [],
      "name": "getTotalTestCount",
      "outputs": [
        {
          "internalType": "uint256",
          "name": "",
          "type": "uint256"
        }
      ],
      "stateMutability": "view",
      "type": "function",
      "constant": true
    },
    {
      "inputs": [
        {
          "internalType": "string",
          "name": "_type",
          "type": "string"
        }
      ],
      "name": "getV_amount",
      "outputs": [
        {
          "internalType": "uint256",
          "name": "amount",
          "type": "uint256"
        }
      ],
      "stateMutability": "view",
      "type": "function",
      "constant": true
    },
    {
      "inputs": [
        {
          "internalType": "address",
          "name": "_owner",
          "type": "address"
        }
      ],
      "name": "getRegistered",
      "outputs": [
        {
          "internalType": "bool",
          "name": "",
          "type": "bool"
        }
      ],
      "stateMutability": "view",
      "type": "function",
      "constant": true
    }
  ],
  "bytecode": "0x608060405260006001556040518060e00160405280600015158152602001600163ffffffff1681526020016040518060400160405280600981526020017f596f7572204e616d65000000000000000000000000000000000000000000000081525081526020016360a7c35181526020016000600381111562000086576200008562000383565b5b8152602001600081526020016002815250600860008201518160000160006101000a81548160ff02191690831515021790555060208201518160000160016101000a81548163ffffffff021916908363ffffffff1602179055506040820151816001019080519060200190620000fe9291906200029d565b506060820151816002015560808201518160030160006101000a81548160ff0219169083600381111562000137576200013662000383565b5b021790555060a0820151816004015560c0820151816005015550506040518060a00160405280600063ffffffff1681526020013373ffffffffffffffffffffffffffffffffffffffff168152602001600163ffffffff16815260200160006001811115620001aa57620001a962000383565b5b815260200142815250600e60008201518160000160006101000a81548163ffffffff021916908363ffffffff16021790555060208201518160000160046101000a81548173ffffffffffffffffffffffffffffffffffffffff021916908373ffffffffffffffffffffffffffffffffffffffff16021790555060408201518160000160186101000a81548163ffffffff021916908363ffffffff160217905550606082015181600001601c6101000a81548160ff0219169083600181111562000278576200027762000383565b5b02179055506080820151816001015550503480156200029657600080fd5b50620003e1565b828054620002ab906200034d565b90600052602060002090601f016020900481019282620002cf57600085556200031b565b82601f10620002ea57805160ff19168380011785556200031b565b828001600101855582156200031b579182015b828111156200031a578251825591602001919060010190620002fd565b5b5090506200032a91906200032e565b5090565b5b80821115620003495760008160009055506001016200032f565b5090565b600060028204905060018216806200036657607f821691505b602082108114156200037d576200037c620003b2565b5b50919050565b7f4e487b7100000000000000000000000000000000000000000000000000000000600052602160045260246000fd5b7f4e487b7100000000000000000000000000000000000000000000000000000000600052602260045260246000fd5b612d5d80620003f16000396000f3fe608060405234801561001057600080fd5b50600436106101375760003560e01c80636bfa4e79116100b8578063b3e5d4011161007c578063b3e5d40114610388578063be403273146103b8578063c8f1f513146103e8578063dbaf858d14610418578063f462ff3314610448578063f5d9a20a1461047857610137565b80636bfa4e79146102ac5780638f8f9c73146102dc57806399f826a51461030c578063a967952f1461033c578063b2bbaf701461035857610137565b80632cae2096116100ff5780632cae2096146101f65780632d424c1214610200578063392a7e351461021c5780635fd4b08a1461024c57806369d8f2371461027c57610137565b806304af29c41461013c5780631113159814610158578063177c2a281461018857806319647edd146101a65780631aa39b88146101c2575b600080fd5b6101566004803603810190610151919061258e565b610494565b005b610172600480360381019061016d9190612404565b6109c9565b60405161017f9190612847565b60405180910390f35b6101906109e1565b60405161019d9190612847565b60405180910390f35b6101c060048036038101906101bb9190612505565b6109eb565b005b6101dc60048036038101906101d79190612561565b610c62565b6040516101ed95949392919061287d565b60405180910390f35b6101fe610ce5565b005b61021a6004803603810190610215919061258e565b610d96565b005b61023660048036038101906102319190612431565b611234565b6040516102439190612847565b60405180910390f35b610266600480360381019061026191906123d7565b61138b565b6040516102739190612825565b60405180910390f35b610296600480360381019061029191906123d7565b61145f565b6040516102a391906127d4565b60405180910390f35b6102c660048036038101906102c191906123d7565b6114e6565b6040516102d391906127ef565b60405180910390f35b6102f660048036038101906102f191906123d7565b611544565b6040516103039190612847565b60405180910390f35b610326600480360381019061032191906123d7565b611590565b6040516103339190612862565b60405180910390f35b61035660048036038101906103519190612505565b6115c3565b005b610372600480360381019061036d91906123d7565b61183a565b60405161037f9190612825565b60405180910390f35b6103a2600480360381019061039d91906123d7565b6119a5565b6040516103af9190612847565b60405180910390f35b6103d260048036038101906103cd91906123d7565b611a0c565b6040516103df91906127ef565b60405180910390f35b61040260048036038101906103fd91906123d7565b611a2c565b60405161040f9190612825565b60405180910390f35b610432600480360381019061042d91906123d7565b611d17565b60405161043f919061280a565b60405180910390f35b610462600480360381019061045d91906123d7565b611d63565b60405161046f9190612847565b60405180910390f35b610492600480360381019061048d919061247a565b611db4565b005b60011515600360003373ffffffffffffffffffffffffffffffffffffffff1673ffffffffffffffffffffffffffffffffffffffff16815260200190815260200160002060009054906101000a900460ff161515146104f157600080fd5b60008190506000818051906020012090507f8dfce459feaf97691d19cf3eb6893df6359803fdb7503df5d8cce17ab890999d8114156105d557600060026000600760008863ffffffff1663ffffffff16815260200190815260200160002060009054906101000a900473ffffffffffffffffffffffffffffffffffffffff1673ffffffffffffffffffffffffffffffffffffffff1673ffffffffffffffffffffffffffffffffffffffff16815260200190815260200160002060030160006101000a81548160ff021916908360038111156105cf576105ce612bbf565b5b02179055505b7f2b021f796d005e91c82619e051048b82c818c1d427984f5a45c38f0292c259a78114156106a857600160026000600760008863ffffffff1663ffffffff16815260200190815260200160002060009054906101000a900473ffffffffffffffffffffffffffffffffffffffff1673ffffffffffffffffffffffffffffffffffffffff1673ffffffffffffffffffffffffffffffffffffffff16815260200190815260200160002060030160006101000a81548160ff021916908360038111156106a2576106a1612bbf565b5b02179055505b7f1d42508380a716d96ec93425f25bf70b791787dfe2c6147bc09e33cdc756de9981141561077a576002806000600760008863ffffffff1663ffffffff16815260200190815260200160002060009054906101000a900473ffffffffffffffffffffffffffffffffffffffff1673ffffffffffffffffffffffffffffffffffffffff1673ffffffffffffffffffffffffffffffffffffffff16815260200190815260200160002060030160006101000a81548160ff0219169083600381111561077457610773612bbf565b5b02179055505b7f79646242f923e84d3b377fa2e631e9b48a8b851cf81f9ddb244dd7b50f79684981141561084d57600360026000600760008863ffffffff1663ffffffff16815260200190815260200160002060009054906101000a900473ffffffffffffffffffffffffffffffffffffffff1673ffffffffffffffffffffffffffffffffffffffff1673ffffffffffffffffffffffffffffffffffffffff16815260200190815260200160002060030160006101000a81548160ff0219169083600381111561084757610846612bbf565b5b02179055505b60016005600060026000600760008a63ffffffff1663ffffffff16815260200190815260200160002060009054906101000a900473ffffffffffffffffffffffffffffffffffffffff1673ffffffffffffffffffffffffffffffffffffffff1673ffffffffffffffffffffffffffffffffffffffff16815260200190815260200160002060030160009054906101000a900460ff1660038111156108f4576108f3612bbf565b5b600381111561090657610905612bbf565b5b8152602001908152602001600020600082825461092391906129b9565b92505081905550600160026000600760008863ffffffff1663ffffffff16815260200190815260200160002060009054906101000a900473ffffffffffffffffffffffffffffffffffffffff1673ffffffffffffffffffffffffffffffffffffffff1673ffffffffffffffffffffffffffffffffffffffff16815260200190815260200160002060050160008282546109bc91906129b9565b9250508190555050505050565b60056020528060005260406000206000915090505481565b6000600154905090565b60011515600360003373ffffffffffffffffffffffffffffffffffffffff1673ffffffffffffffffffffffffffffffffffffffff16815260200190815260200160002060009054906101000a900460ff16151514610a4857600080fd5b60008290506000818051906020012090507f2b021f796d005e91c82619e051048b82c818c1d427984f5a45c38f0292c259a7811415610b05576000604051806040016040528060016003811115610aa257610aa1612bbf565b5b815260200185815250905080602001516005600083600001516003811115610acd57610acc612bbf565b5b6003811115610adf57610ade612bbf565b5b81526020019081526020016000206000828254610afc9190612963565b92505081905550505b7f1d42508380a716d96ec93425f25bf70b791787dfe2c6147bc09e33cdc756de99811415610bb1576000604051806040016040528060026003811115610b4e57610b4d612bbf565b5b815260200185815250905080602001516005600083600001516003811115610b7957610b78612bbf565b5b6003811115610b8b57610b8a612bbf565b5b81526020019081526020016000206000828254610ba89190612963565b92505081905550505b7f79646242f923e84d3b377fa2e631e9b48a8b851cf81f9ddb244dd7b50f796849811415610c5c5760006040518060400160405280600380811115610bf957610bf8612bbf565b5b815260200185815250905080602001516005600083600001516003811115610c2457610c23612bbf565b5b6003811115610c3657610c35612bbf565b5b81526020019081526020016000206000828254610c539190612963565b92505081905550505b50505050565b60046020528060005260406000206000915090508060000160009054906101000a900463ffffffff16908060000160049054906101000a900473ffffffffffffffffffffffffffffffffffffffff16908060000160189054906101000a900463ffffffff169080600001601c9054906101000a900460ff16908060010154905085565b600360003373ffffffffffffffffffffffffffffffffffffffff1673ffffffffffffffffffffffffffffffffffffffff16815260200190815260200160002060009054906101000a900460ff1615610d3c57600080fd5b6001600360003373ffffffffffffffffffffffffffffffffffffffff1673ffffffffffffffffffffffffffffffffffffffff16815260200190815260200160002060006101000a81548160ff021916908315150217905550565b60011515600360003373ffffffffffffffffffffffffffffffffffffffff1673ffffffffffffffffffffffffffffffffffffffff16815260200190815260200160002060009054906101000a900460ff16151514610df357600080fd5b60008190506000818051906020012090506000600760008663ffffffff1663ffffffff16815260200190815260200160002060009054906101000a900473ffffffffffffffffffffffffffffffffffffffff1642604051602001610e5892919061274b565b6040516020818303038152906040528051906020012060001c905060016000815480929190610e8690612b19565b9190505550600160026000600760008963ffffffff1663ffffffff16815260200190815260200160002060009054906101000a900473ffffffffffffffffffffffffffffffffffffffff1673ffffffffffffffffffffffffffffffffffffffff1673ffffffffffffffffffffffffffffffffffffffff1681526020019081526020016000206004016000828254610f1d9190612963565b92505081905550600060026000600760008963ffffffff1663ffffffff16815260200190815260200160002060009054906101000a900473ffffffffffffffffffffffffffffffffffffffff1673ffffffffffffffffffffffffffffffffffffffff1673ffffffffffffffffffffffffffffffffffffffff1681526020019081526020016000206004015490504260046000838152602001908152602001600020600101819055507f1e0de54c5c10c798b345cb0c8e9232a0b7b019cd243fa40552eb71ba5bdcf6cc83141561101c576000600e600001601c6101000a81548160ff0219169083600181111561101657611015612bbf565b5b02179055505b7f29854b8ecc5c6d6cd7b784f5be909f9658de27870e8a6e661de413726fe407bc831415611073576001600e600001601c6101000a81548160ff0219169083600181111561106d5761106c612bbf565b5b02179055505b600e600001601c9054906101000a900460ff1660046000838152602001908152602001600020600001601c6101000a81548160ff021916908360018111156110be576110bd612bbf565b5b021790555060006040518060a001604052808463ffffffff1681526020013373ffffffffffffffffffffffffffffffffffffffff1681526020018863ffffffff16815260200160046000858152602001908152602001600020600001601c9054906101000a900460ff16600181111561113a57611139612bbf565b5b8152602001428152509050806004600084815260200190815260200160002060008201518160000160006101000a81548163ffffffff021916908363ffffffff16021790555060208201518160000160046101000a81548173ffffffffffffffffffffffffffffffffffffffff021916908373ffffffffffffffffffffffffffffffffffffffff16021790555060408201518160000160186101000a81548163ffffffff021916908363ffffffff160217905550606082015181600001601c6101000a81548160ff0219169083600181111561121957611218612bbf565b5b02179055506080820151816001015590505050505050505050565b6000808290506000818051906020012090507f2b021f796d005e91c82619e051048b82c818c1d427984f5a45c38f0292c259a78114156112b057600560006001600381111561128657611285612bbf565b5b600381111561129857611297612bbf565b5b81526020019081526020016000205492505050611386565b7f1d42508380a716d96ec93425f25bf70b791787dfe2c6147bc09e33cdc756de9981141561131a5760056000600260038111156112f0576112ef612bbf565b5b600381111561130257611301612bbf565b5b81526020019081526020016000205492505050611386565b7f79646242f923e84d3b377fa2e631e9b48a8b851cf81f9ddb244dd7b50f796849811415611383576005600060038081111561135957611358612bbf565b5b600381111561136b5761136a612bbf565b5b81526020019081526020016000205492505050611386565b50505b919050565b6060600260008373ffffffffffffffffffffffffffffffffffffffff1673ffffffffffffffffffffffffffffffffffffffff16815260200190815260200160002060010180546113da90612ab6565b80601f016020809104026020016040519081016040528092919081815260200182805461140690612ab6565b80156114535780601f1061142857610100808354040283529160200191611453565b820191906000526020600020905b81548152906001019060200180831161143657829003601f168201915b50505050509050919050565b600080600260008473ffffffffffffffffffffffffffffffffffffffff1673ffffffffffffffffffffffffffffffffffffffff1681526020019081526020016000206004015490506004600082815260200190815260200160002060000160049054906101000a900473ffffffffffffffffffffffffffffffffffffffff16915050919050565b600080600260008473ffffffffffffffffffffffffffffffffffffffff1673ffffffffffffffffffffffffffffffffffffffff16815260200190815260200160002060000160009054906101000a900460ff16905080915050919050565b6000600260008373ffffffffffffffffffffffffffffffffffffffff1673ffffffffffffffffffffffffffffffffffffffff168152602001908152602001600020600501549050919050565b6000816040516020016115a39190612730565b6040516020818303038152906040528051906020012060001c9050919050565b60011515600360003373ffffffffffffffffffffffffffffffffffffffff1673ffffffffffffffffffffffffffffffffffffffff16815260200190815260200160002060009054906101000a900460ff1615151461162057600080fd5b60008290506000818051906020012090507f2b021f796d005e91c82619e051048b82c818c1d427984f5a45c38f0292c259a78114156116dd57600060405180604001604052806001600381111561167a57611679612bbf565b5b8152602001858152509050806020015160056000836000015160038111156116a5576116a4612bbf565b5b60038111156116b7576116b6612bbf565b5b815260200190815260200160002060008282546116d491906129b9565b92505081905550505b7f1d42508380a716d96ec93425f25bf70b791787dfe2c6147bc09e33cdc756de9981141561178957600060405180604001604052806002600381111561172657611725612bbf565b5b81526020018581525090508060200151600560008360000151600381111561175157611750612bbf565b5b600381111561176357611762612bbf565b5b8152602001908152602001600020600082825461178091906129b9565b92505081905550505b7f79646242f923e84d3b377fa2e631e9b48a8b851cf81f9ddb244dd7b50f79684981141561183457600060405180604001604052806003808111156117d1576117d0612bbf565b5b8152602001858152509050806020015160056000836000015160038111156117fc576117fb612bbf565b5b600381111561180e5761180d612bbf565b5b8152602001908152602001600020600082825461182b91906129b9565b92505081905550505b50505050565b60606000600260008473ffffffffffffffffffffffffffffffffffffffff1673ffffffffffffffffffffffffffffffffffffffff16815260200190815260200160002060040154905060018081111561189657611895612bbf565b5b60046000838152602001908152602001600020600001601c9054906101000a900460ff1660018111156118cc576118cb612bbf565b5b1415611910576040518060400160405280600881526020017f506f7369746976650000000000000000000000000000000000000000000000008152509150506119a0565b6000600181111561192457611923612bbf565b5b60046000838152602001908152602001600020600001601c9054906101000a900460ff16600181111561195a57611959612bbf565b5b141561199e576040518060400160405280600881526020017f4e656761746976650000000000000000000000000000000000000000000000008152509150506119a0565b505b919050565b600080600260008473ffffffffffffffffffffffffffffffffffffffff1673ffffffffffffffffffffffffffffffffffffffff1681526020019081526020016000206004015490506004600082815260200190815260200160002060010154915050919050565b60036020528060005260406000206000915054906101000a900460ff1681565b606060006003811115611a4257611a41612bbf565b5b600260008473ffffffffffffffffffffffffffffffffffffffff1673ffffffffffffffffffffffffffffffffffffffff16815260200190815260200160002060030160009054906101000a900460ff166003811115611aa457611aa3612bbf565b5b1415611ae7576040518060400160405280600481526020017f4e6f6e65000000000000000000000000000000000000000000000000000000008152509050611d12565b60016003811115611afb57611afa612bbf565b5b600260008473ffffffffffffffffffffffffffffffffffffffff1673ffffffffffffffffffffffffffffffffffffffff16815260200190815260200160002060030160009054906101000a900460ff166003811115611b5d57611b5c612bbf565b5b1415611ba0576040518060400160405280600781526020017f4d6f6465726e61000000000000000000000000000000000000000000000000008152509050611d12565b60026003811115611bb457611bb3612bbf565b5b600260008473ffffffffffffffffffffffffffffffffffffffff1673ffffffffffffffffffffffffffffffffffffffff16815260200190815260200160002060030160009054906101000a900460ff166003811115611c1657611c15612bbf565b5b1415611c59576040518060400160405280600681526020017f5066697a657200000000000000000000000000000000000000000000000000008152509050611d12565b600380811115611c6c57611c6b612bbf565b5b600260008473ffffffffffffffffffffffffffffffffffffffff1673ffffffffffffffffffffffffffffffffffffffff16815260200190815260200160002060030160009054906101000a900460ff166003811115611cce57611ccd612bbf565b5b1415611d11576040518060400160405280600b81526020017f41737472615a656e6563610000000000000000000000000000000000000000008152509050611d12565b5b919050565b6000600260008373ffffffffffffffffffffffffffffffffffffffff1673ffffffffffffffffffffffffffffffffffffffff168152602001908152602001600020600201549050919050565b600080600260008473ffffffffffffffffffffffffffffffffffffffff1673ffffffffffffffffffffffffffffffffffffffff16815260200190815260200160002060040154905080915050919050565b336000806101000a81548173ffffffffffffffffffffffffffffffffffffffff021916908373ffffffffffffffffffffffffffffffffffffffff160217905550606083604051602001611e0791906127bd565b604051602081830303815290604052905080604051602001611e29919061279b565b60405160208183030381529060405290508083604051602001611e4d929190612777565b6040516020818303038152906040529050600081905080600260008060009054906101000a900473ffffffffffffffffffffffffffffffffffffffff1673ffffffffffffffffffffffffffffffffffffffff1673ffffffffffffffffffffffffffffffffffffffff1681526020019081526020016000206001019080519060200190611eda92919061225b565b506000611f0660008054906101000a900473ffffffffffffffffffffffffffffffffffffffff16611590565b905080600660008060009054906101000a900473ffffffffffffffffffffffffffffffffffffffff1673ffffffffffffffffffffffffffffffffffffffff1673ffffffffffffffffffffffffffffffffffffffff16815260200190815260200160002060006101000a81548163ffffffff021916908363ffffffff16021790555060008054906101000a900473ffffffffffffffffffffffffffffffffffffffff16600760008363ffffffff1663ffffffff16815260200190815260200160002060006101000a81548173ffffffffffffffffffffffffffffffffffffffff021916908373ffffffffffffffffffffffffffffffffffffffff16021790555083600260008060009054906101000a900473ffffffffffffffffffffffffffffffffffffffff1673ffffffffffffffffffffffffffffffffffffffff1673ffffffffffffffffffffffffffffffffffffffff16815260200190815260200160002060020181905550600260008060009054906101000a900473ffffffffffffffffffffffffffffffffffffffff1673ffffffffffffffffffffffffffffffffffffffff1673ffffffffffffffffffffffffffffffffffffffff16815260200190815260200160002060000160009054906101000a900460ff166121d7576000600260008060009054906101000a900473ffffffffffffffffffffffffffffffffffffffff1673ffffffffffffffffffffffffffffffffffffffff1673ffffffffffffffffffffffffffffffffffffffff16815260200190815260200160002060030160006101000a81548160ff0219169083600381111561216957612168612bbf565b5b021790555060028060008060009054906101000a900473ffffffffffffffffffffffffffffffffffffffff1673ffffffffffffffffffffffffffffffffffffffff1673ffffffffffffffffffffffffffffffffffffffff168152602001908152602001600020600501819055505b6001600260008060009054906101000a900473ffffffffffffffffffffffffffffffffffffffff1673ffffffffffffffffffffffffffffffffffffffff1673ffffffffffffffffffffffffffffffffffffffff16815260200190815260200160002060000160006101000a81548160ff021916908315150217905550505050505050565b82805461226790612ab6565b90600052602060002090601f01602090048101928261228957600085556122d0565b82601f106122a257805160ff19168380011785556122d0565b828001600101855582156122d0579182015b828111156122cf5782518255916020019190600101906122b4565b5b5090506122dd91906122e1565b5090565b5b808211156122fa5760008160009055506001016122e2565b5090565b600061231161230c846128f5565b6128d0565b90508281526020810184848401111561232d5761232c612c51565b5b612338848285612a74565b509392505050565b60008135905061234f81612cbb565b92915050565b60008135905061236481612cd2565b92915050565b60008135905061237981612ce2565b92915050565b600082601f83011261239457612393612c4c565b5b81356123a48482602086016122fe565b91505092915050565b6000813590506123bc81612cf9565b92915050565b6000813590506123d181612d10565b92915050565b6000602082840312156123ed576123ec612c5b565b5b60006123fb84828501612340565b91505092915050565b60006020828403121561241a57612419612c5b565b5b600061242884828501612355565b91505092915050565b60006020828403121561244757612446612c5b565b5b600082013567ffffffffffffffff81111561246557612464612c56565b5b6124718482850161237f565b91505092915050565b60008060006060848603121561249357612492612c5b565b5b600084013567ffffffffffffffff8111156124b1576124b0612c56565b5b6124bd8682870161237f565b935050602084013567ffffffffffffffff8111156124de576124dd612c56565b5b6124ea8682870161237f565b92505060406124fb8682870161236a565b9150509250925092565b6000806040838503121561251c5761251b612c5b565b5b600083013567ffffffffffffffff81111561253a57612539612c56565b5b6125468582860161237f565b9250506020612557858286016123ad565b9150509250929050565b60006020828403121561257757612576612c5b565b5b6000612585848285016123ad565b91505092915050565b600080604083850312156125a5576125a4612c5b565b5b60006125b3858286016123c2565b925050602083013567ffffffffffffffff8111156125d4576125d3612c56565b5b6125e08582860161237f565b9150509250929050565b6125f3816129ed565b82525050565b61260a612605826129ed565b612b62565b82525050565b612619816129ff565b82525050565b600061262a82612926565b612634818561293c565b9350612644818560208601612a83565b80840191505092915050565b61265981612a62565b82525050565b61266881612a1e565b82525050565b600061267982612931565b6126838185612947565b9350612693818560208601612a83565b61269c81612c60565b840191505092915050565b60006126b282612931565b6126bc8185612958565b93506126cc818560208601612a83565b80840191505092915050565b60006126e5600183612958565b91506126f082612c7e565b600182019050919050565b61270481612a48565b82525050565b61271b61271682612a48565b612b86565b82525050565b61272a81612a52565b82525050565b600061273c82846125f9565b60148201915081905092915050565b600061275782856125f9565b601482019150612767828461270a565b6020820191508190509392505050565b6000612783828561261f565b915061278f82846126a7565b91508190509392505050565b60006127a7828461261f565b91506127b2826126d8565b915081905092915050565b60006127c982846126a7565b915081905092915050565b60006020820190506127e960008301846125ea565b92915050565b60006020820190506128046000830184612610565b92915050565b600060208201905061281f600083018461265f565b92915050565b6000602082019050818103600083015261283f818461266e565b905092915050565b600060208201905061285c60008301846126fb565b92915050565b60006020820190506128776000830184612721565b92915050565b600060a0820190506128926000830188612721565b61289f60208301876125ea565b6128ac6040830186612721565b6128b96060830185612650565b6128c660808301846126fb565b9695505050505050565b60006128da6128eb565b90506128e68282612ae8565b919050565b6000604051905090565b600067ffffffffffffffff8211156129105761290f612c1d565b5b61291982612c60565b9050602081019050919050565b600081519050919050565b600081519050919050565b600081905092915050565b600082825260208201905092915050565b600081905092915050565b600061296e82612a48565b915061297983612a48565b9250827fffffffffffffffffffffffffffffffffffffffffffffffffffffffffffffffff038211156129ae576129ad612b90565b5b828201905092915050565b60006129c482612a48565b91506129cf83612a48565b9250828210156129e2576129e1612b90565b5b828203905092915050565b60006129f882612a28565b9050919050565b60008115159050919050565b6000819050612a1982612ca7565b919050565b6000819050919050565b600073ffffffffffffffffffffffffffffffffffffffff82169050919050565b6000819050919050565b600063ffffffff82169050919050565b6000612a6d82612a0b565b9050919050565b82818337600083830152505050565b60005b83811015612aa1578082015181840152602081019050612a86565b83811115612ab0576000848401525b50505050565b60006002820490506001821680612ace57607f821691505b60208210811415612ae257612ae1612bee565b5b50919050565b612af182612c60565b810181811067ffffffffffffffff82111715612b1057612b0f612c1d565b5b80604052505050565b6000612b2482612a48565b91507fffffffffffffffffffffffffffffffffffffffffffffffffffffffffffffffff821415612b5757612b56612b90565b5b600182019050919050565b6000612b6d82612b74565b9050919050565b6000612b7f82612c71565b9050919050565b6000819050919050565b7f4e487b7100000000000000000000000000000000000000000000000000000000600052601160045260246000fd5b7f4e487b7100000000000000000000000000000000000000000000000000000000600052602160045260246000fd5b7f4e487b7100000000000000000000000000000000000000000000000000000000600052602260045260246000fd5b7f4e487b7100000000000000000000000000000000000000000000000000000000600052604160045260246000fd5b600080fd5b600080fd5b600080fd5b600080fd5b6000601f19601f8301169050919050565b60008160601b9050919050565b7f2000000000000000000000000000000000000000000000000000000000000000600082015250565b60028110612cb857612cb7612bbf565b5b50565b612cc4816129ed565b8114612ccf57600080fd5b50565b60048110612cdf57600080fd5b50565b612ceb81612a1e565b8114612cf657600080fd5b50565b612d0281612a48565b8114612d0d57600080fd5b50565b612d1981612a52565b8114612d2457600080fd5b5056fea2646970667358221220748f0aaea467b87fa77d136d7b15769def7db792a9e1ffa77c102dfb6b07430e64736f6c63430008070033",
  "immutableReferences": {},
  "source": "// SPDX-License-Identifier: MIT\npragma solidity = 0.8.7;\n\ncontract MedPass {\n    address owner;\n\n    enum Condition {Negative, Positive}\n    enum VaccineType {None, Moderna, Pfizer, AstraZeneca}\n\n    struct Vaccine {\n        VaccineType vaccine;\n        uint256 amount;\n    }\n\n    struct Person {\n        bool registered;\n        uint32 id;\n        string name;\n        int256 bday;\n        VaccineType vaccine;\n        uint256 testCount;\n        uint256 v_required;\n    }\n\n    // rename\n    uint256 totalTestCount = 0;\n\n    struct Test {\n        uint32 id;\n        address by_admin;\n        uint32 patient_id;\n        Condition condition;\n        uint256 timestamp;\n    }\n\n    modifier onlyAdmin() {\n        require(adminmapping[msg.sender] == true);\n        _;\n    }\n\n    // struct mappings\n    mapping(address => Person) private identity;\n    mapping(address => bool) public adminmapping;\n    mapping(uint256 => Test) public personTests;\n    mapping(VaccineType => uint256) public v_amount;\n    \n    mapping(address => uint32) private addToID;\n    mapping(uint32 => address) private idToAdd;\n\n    // default person\n    Person p = Person(false, 1, \"Your Name\", 1621607249, VaccineType.None, 0, 2);\n    // default test\n    Test t = Test(0, msg.sender, 1, Condition.Negative, block.timestamp);\n\n    function setPerson(\n        string memory _fname,\n        string memory _lname,\n        int256 _bday\n    ) public {\n        // get address of account\n        owner = msg.sender;\n\n        // NAME\n        // concatenate First & Last Name into one string\n        bytes memory s;\n        s = abi.encodePacked(_fname);\n        s = abi.encodePacked(s, \" \");\n        s = abi.encodePacked(s, _lname);\n        string memory fullName = string(s);\n        // set name of person and map it to account address\n        identity[owner].name = fullName;\n        // ID\n        uint32 id = getID(owner);\n        addToID[owner] = id;\n        idToAdd[id] = owner;\n        // BDAY\n        identity[owner].bday = _bday;\n        // VACCINE\n        if (!identity[owner].registered) {\n            identity[owner].vaccine = VaccineType.None;\n            identity[owner].v_required = 2;\n        }\n        identity[owner].registered = true;\n    }\n\n    function setAdmin() public {\n        require(!adminmapping[msg.sender]);\n        adminmapping[msg.sender] = true;\n    }\n\n    function setVaccine(uint32 _id, string memory _vaccine) public onlyAdmin {\n        bytes memory vaccine = bytes(_vaccine);\n        bytes32 Hash = keccak256(vaccine);\n        if (Hash == keccak256(\"None\")) {\n            identity[idToAdd[_id]].vaccine = VaccineType.None;\n        }\n        if (Hash == keccak256(\"Moderna\")) {\n            identity[idToAdd[_id]].vaccine = VaccineType.Moderna;\n        }\n        if (Hash == keccak256(\"Pfizer\")) {\n            identity[idToAdd[_id]].vaccine = VaccineType.Pfizer;\n        }\n        if (Hash == keccak256(\"AstraZeneca\")) {\n            identity[idToAdd[_id]].vaccine = VaccineType.AstraZeneca;\n        }\n        v_amount[identity[idToAdd[_id]].vaccine] -= 1;\n        identity[idToAdd[_id]].v_required -= 1;\n    }\n\n    function addV_amount(string memory _type, uint256 _amount)\n        public\n        onlyAdmin\n    {\n        bytes memory vtype = bytes(_type);\n        bytes32 Hash = keccak256(vtype);\n        if (Hash == keccak256(\"Moderna\")) {\n            Vaccine memory moderna = Vaccine(VaccineType.Moderna, _amount);\n            v_amount[moderna.vaccine] += moderna.amount;\n        }\n        if (Hash == keccak256(\"Pfizer\")) {\n            Vaccine memory pfizer = Vaccine(VaccineType.Pfizer, _amount);\n            v_amount[pfizer.vaccine] += pfizer.amount;\n        }\n        if (Hash == keccak256(\"AstraZeneca\")) {\n            Vaccine memory astrazeneca = Vaccine(VaccineType.AstraZeneca, _amount);\n            v_amount[astrazeneca.vaccine] += astrazeneca.amount;\n        }\n    }\n\n    function subV_amount(string memory _type, uint256 _amount)\n        public\n        onlyAdmin\n    {\n        bytes memory vtype = bytes(_type);\n        bytes32 Hash = keccak256(vtype);\n        if (Hash == keccak256(\"Moderna\")) {\n            Vaccine memory moderna = Vaccine(VaccineType.Moderna, _amount);\n            v_amount[moderna.vaccine] -= moderna.amount;\n        }\n        if (Hash == keccak256(\"Pfizer\")) {\n            Vaccine memory pfizer = Vaccine(VaccineType.Pfizer, _amount);\n            v_amount[pfizer.vaccine] -= pfizer.amount;\n        }\n        if (Hash == keccak256(\"AstraZeneca\")) {\n            Vaccine memory astrazeneca = Vaccine(VaccineType.AstraZeneca, _amount);\n            v_amount[astrazeneca.vaccine] -= astrazeneca.amount;\n        }\n    }\n\n    function createTest(uint32 _id, string memory _condition) public onlyAdmin {\n        // keccak256() only accept bytes as arguments, so we need explicit conversion\n        bytes memory condi = bytes(_condition);\n        bytes32 Hash = keccak256(condi);\n\n        uint32 id =\n            uint32(\n                uint256(\n                    keccak256(abi.encodePacked(idToAdd[_id], block.timestamp))\n                )\n            );\n\n        totalTestCount++;\n        identity[idToAdd[_id]].testCount += 1;\n        uint256 testCount = identity[idToAdd[_id]].testCount;\n\n        personTests[testCount].timestamp = block.timestamp;\n\n        if (Hash == keccak256(\"Negative\")) {\n            t.condition = Condition.Negative;\n        }\n        if (Hash == keccak256(\"Positive\")) {\n            t.condition = Condition.Positive;\n        }\n        personTests[testCount].condition = t.condition;\n        Test memory test =\n            Test(\n                id,\n                msg.sender,\n                _id,\n                personTests[testCount].condition,\n                block.timestamp\n            );\n\n        personTests[testCount] = test;\n    }\n\n    function getID(address _owner) public pure returns (uint32) {\n        // returns ID of patient\n        return uint32(uint256(keccak256(abi.encodePacked(_owner))));\n    }\n\n    function getName(address _owner) public view returns (string memory) {\n        // returns full patient name which is mapped to the address\n        return identity[_owner].name;\n    }\n\n    function getBday(address _owner) public view returns (int256) {\n        return identity[_owner].bday;\n    }\n\n    function getV_Required(address _owner) public view returns (uint256) {\n        return identity[_owner].v_required;\n    }\n\n    function getVaccine(address _owner)\n        public\n        view\n        returns (string memory _vaccine)\n    {\n        if (identity[_owner].vaccine == VaccineType.None) {\n            return \"None\";\n        }\n        if (identity[_owner].vaccine == VaccineType.Moderna) {\n            return \"Moderna\";\n        }\n        if (identity[_owner].vaccine == VaccineType.Pfizer) {\n            return \"Pfizer\";\n        }\n        if (identity[_owner].vaccine == VaccineType.AstraZeneca) {\n            return \"AstraZeneca\";\n        }\n    }\n\n    function getByAdmin(address _owner) public view returns (address) {\n        uint256 testID = identity[_owner].testCount;\n        return personTests[testID].by_admin;\n    }\n\n    function getCondition(address _owner)\n        public\n        view\n        returns (string memory condi)\n    {\n        uint256 testID = identity[_owner].testCount;\n        if (personTests[testID].condition == Condition.Positive) {\n            return \"Positive\";\n        }\n        if (personTests[testID].condition == Condition.Negative) {\n            return \"Negative\";\n        }\n    }\n\n    function getTestTime(address _owner) public view returns (uint256) {\n        uint256 testID = identity[_owner].testCount;\n        return personTests[testID].timestamp;\n    }\n\n    function getTestCount(address _owner) public view returns (uint256) {\n        uint256 testcount = identity[_owner].testCount;\n        return testcount;\n    }\n\n    function getTotalTestCount() public view returns (uint256) {\n        return totalTestCount;\n    }\n\n    function getV_amount(string memory _type)\n        public\n        view\n        returns (uint256 amount)\n    {\n        bytes memory vtype = bytes(_type);\n        bytes32 Hash = keccak256(vtype);\n        if (Hash == keccak256(\"Moderna\")) {\n            return v_amount[VaccineType.Moderna];\n        }\n        if (Hash == keccak256(\"Pfizer\")) {\n            return v_amount[VaccineType.Pfizer];\n        }\n        if (Hash == keccak256(\"AstraZeneca\")) {\n            return v_amount[VaccineType.AstraZeneca];\n        }\n    }\n\n    function getRegistered(address _owner) public view returns (bool) {\n        bool isregistered = identity[_owner].registered;\n        return isregistered;\n    }\n}\n",
  "sourcePath": "/Users/stian4real/Prog Projects/MedPass/MedPass/contracts/MedPass.sol",
  "compiler": {
    "name": "solc",
    "version": "0.8.7+commit.e28d00a7.Emscripten.clang"
  },
  "schemaVersion": "3.4.3",
  "updatedAt": "2021-10-01T17:11:21.434Z",
  "networkType": "ethereum",
  "devdoc": {
    "kind": "dev",
    "methods": {},
    "version": 1
  },
  "userdoc": {
    "kind": "user",
    "methods": {},
    "version": 1
  }
}